{
  "address": "0xA9195e776A8266382ECd22755DE77C78BA4c37fa",
  "abi": [
    {
      "inputs": [],
      "stateMutability": "nonpayable",
      "type": "constructor"
    },
    {
      "inputs": [],
      "name": "Donate",
      "outputs": [],
      "stateMutability": "payable",
      "type": "function"
    },
    {
      "inputs": [
        {
          "internalType": "address",
          "name": "",
          "type": "address"
        }
      ],
      "name": "addressToAmountDonated",
      "outputs": [
        {
          "internalType": "uint256",
          "name": "",
          "type": "uint256"
        }
      ],
      "stateMutability": "view",
      "type": "function"
    },
    {
      "inputs": [
        {
          "internalType": "address payable",
          "name": "newOwner",
          "type": "address"
        }
      ],
      "name": "passOwnership",
      "outputs": [],
      "stateMutability": "nonpayable",
      "type": "function"
    },
    {
      "inputs": [
        {
          "internalType": "uint256",
          "name": "",
          "type": "uint256"
        }
      ],
      "name": "supporters",
      "outputs": [
        {
          "internalType": "address",
          "name": "",
          "type": "address"
        }
      ],
      "stateMutability": "view",
      "type": "function"
    },
    {
      "inputs": [],
      "name": "widthdraw",
      "outputs": [],
      "stateMutability": "payable",
      "type": "function"
    }
  ],
  "transactionHash": "0xbf0d9a32c7ac202370874cf32dd6fdfb8ea55de45810d600f2e8720a41fd7adf",
  "args": [],
  "numDeployments": 1,
  "solcInputHash": "93cd596a0dd6b1ac74ca70b1dcae817f",
  "bytecode": "0x608060405234801561001057600080fd5b5033600160006101000a81548173ffffffffffffffffffffffffffffffffffffffff021916908373ffffffffffffffffffffffffffffffffffffffff1602179055506107c6806100616000396000f3fe60806040526004361061004a5760003560e01c80633c24b7d71461004f57806352b50a2a1461008c578063620996df14610096578063ab381e74146100bf578063d917deb5146100fc575b600080fd5b34801561005b57600080fd5b50610076600480360381019061007191906104c3565b610106565b604051610083919061058c565b60405180910390f35b610094610145565b005b3480156100a257600080fd5b506100bd60048036038101906100b89190610496565b610284565b005b3480156100cb57600080fd5b506100e660048036038101906100e19190610469565b610358565b6040516100f391906105e7565b60405180910390f35b610104610370565b005b6002818154811061011657600080fd5b906000526020600020016000915054906101000a900473ffffffffffffffffffffffffffffffffffffffff1681565b600160009054906101000a900473ffffffffffffffffffffffffffffffffffffffff1673ffffffffffffffffffffffffffffffffffffffff163373ffffffffffffffffffffffffffffffffffffffff16146101d5576040517f08c379a00000000000000000000000000000000000000000000000000000000081526004016101cc906105c7565b60405180910390fd5b60003373ffffffffffffffffffffffffffffffffffffffff16476040516101fb90610577565b60006040518083038185875af1925050503d8060008114610238576040519150601f19603f3d011682016040523d82523d6000602084013e61023d565b606091505b5050905080610281576040517f08c379a0000000000000000000000000000000000000000000000000000000008152600401610278906105a7565b60405180910390fd5b50565b600160009054906101000a900473ffffffffffffffffffffffffffffffffffffffff1673ffffffffffffffffffffffffffffffffffffffff163373ffffffffffffffffffffffffffffffffffffffff1614610314576040517f08c379a000000000000000000000000000000000000000000000000000000000815260040161030b906105c7565b60405180910390fd5b80600160006101000a81548173ffffffffffffffffffffffffffffffffffffffff021916908373ffffffffffffffffffffffffffffffffffffffff16021790555050565b60006020528060005260406000206000915090505481565b346000803373ffffffffffffffffffffffffffffffffffffffff1673ffffffffffffffffffffffffffffffffffffffff16815260200190815260200160002060008282546103be919061061e565b925050819055506002339080600181540180825580915050600190039060005260206000200160009091909190916101000a81548173ffffffffffffffffffffffffffffffffffffffff021916908373ffffffffffffffffffffffffffffffffffffffff160217905550565b6000813590506104398161074b565b92915050565b60008135905061044e81610762565b92915050565b60008135905061046381610779565b92915050565b60006020828403121561047f5761047e6106f1565b5b600061048d8482850161042a565b91505092915050565b6000602082840312156104ac576104ab6106f1565b5b60006104ba8482850161043f565b91505092915050565b6000602082840312156104d9576104d86106f1565b5b60006104e784828501610454565b91505092915050565b6104f981610674565b82525050565b600061050c600b8361060d565b9150610517826106f6565b602082019050919050565b600061052f60168361060d565b915061053a8261071f565b602082019050919050565b6000610552600083610602565b915061055d82610748565b600082019050919050565b610571816106b8565b82525050565b600061058282610545565b9150819050919050565b60006020820190506105a160008301846104f0565b92915050565b600060208201905081810360008301526105c0816104ff565b9050919050565b600060208201905081810360008301526105e081610522565b9050919050565b60006020820190506105fc6000830184610568565b92915050565b600081905092915050565b600082825260208201905092915050565b6000610629826106b8565b9150610634836106b8565b9250827fffffffffffffffffffffffffffffffffffffffffffffffffffffffffffffffff03821115610669576106686106c2565b5b828201905092915050565b600061067f82610698565b9050919050565b600061069182610698565b9050919050565b600073ffffffffffffffffffffffffffffffffffffffff82169050919050565b6000819050919050565b7f4e487b7100000000000000000000000000000000000000000000000000000000600052601160045260246000fd5b600080fd5b7f43616c6c206661696c6564000000000000000000000000000000000000000000600082015250565b7f596f7520617265206e6f7420746865206f776e65722100000000000000000000600082015250565b50565b61075481610674565b811461075f57600080fd5b50565b61076b81610686565b811461077657600080fd5b50565b610782816106b8565b811461078d57600080fd5b5056fea2646970667358221220fa6e130636acb04c933c64ce30d96e2bb9e44d7015aedb9bf3a04831be677a0a64736f6c63430008070033",
  "devdoc": {
    "author": "Mazen Jamshed",
    "kind": "dev",
    "methods": {},
    "title": "Donate Funds",
    "version": 1
  },
  "userdoc": {
    "kind": "user",
    "methods": {},
    "notice": "Only use on testnet. Not fully tested yet",
    "version": 1
  },
  "storageLayout": {
    "storage": [
      {
        "astId": 6,
        "contract": "contracts/Donation.sol:Donation",
        "label": "addressToAmountDonated",
        "offset": 0,
        "slot": "0",
        "type": "t_mapping(t_address,t_uint256)"
      },
      {
        "astId": 8,
        "contract": "contracts/Donation.sol:Donation",
        "label": "owner",
        "offset": 0,
        "slot": "1",
        "type": "t_address"
      },
      {
        "astId": 11,
        "contract": "contracts/Donation.sol:Donation",
        "label": "supporters",
        "offset": 0,
        "slot": "2",
        "type": "t_array(t_address)dyn_storage"
      }
    ],
    "types": {
      "t_address": {
        "encoding": "inplace",
        "label": "address",
        "numberOfBytes": "20"
      },
      "t_array(t_address)dyn_storage": {
        "base": "t_address",
        "encoding": "dynamic_array",
        "label": "address[]",
        "numberOfBytes": "32"
      },
      "t_mapping(t_address,t_uint256)": {
        "encoding": "mapping",
        "key": "t_address",
        "label": "mapping(address => uint256)",
        "numberOfBytes": "32",
        "value": "t_uint256"
      },
      "t_uint256": {
        "encoding": "inplace",
        "label": "uint256",
        "numberOfBytes": "32"
      }
    }
  }
}